{
  "_format": "hh-sol-artifact-1",
  "contractName": "voting",
  "sourceName": "contracts/voting.sol",
  "abi": [
    {
      "inputs": [
        {
          "internalType": "string[]",
          "name": "_names",
          "type": "string[]"
        }
      ],
      "stateMutability": "nonpayable",
      "type": "constructor"
    },
    {
      "inputs": [],
      "name": "admin",
      "outputs": [
        {
          "internalType": "address",
          "name": "",
          "type": "address"
        }
      ],
      "stateMutability": "view",
      "type": "function"
    },
    {
      "inputs": [
        {
          "internalType": "uint256",
          "name": "",
          "type": "uint256"
        }
      ],
      "name": "candidates",
      "outputs": [
        {
          "internalType": "string",
          "name": "name",
          "type": "string"
        },
        {
          "internalType": "uint256",
          "name": "count",
          "type": "uint256"
        }
      ],
      "stateMutability": "view",
      "type": "function"
    },
    {
      "inputs": [],
      "name": "getWinner",
      "outputs": [
        {
          "internalType": "string",
          "name": "",
          "type": "string"
        }
      ],
      "stateMutability": "view",
      "type": "function"
    },
    {
      "inputs": [
        {
          "internalType": "address",
          "name": "",
          "type": "address"
        }
      ],
      "name": "hasVoted",
      "outputs": [
        {
          "internalType": "bool",
          "name": "",
          "type": "bool"
        }
      ],
      "stateMutability": "view",
      "type": "function"
    },
    {
      "inputs": [
        {
          "internalType": "uint256",
          "name": "ci",
          "type": "uint256"
        }
      ],
      "name": "vote",
      "outputs": [],
      "stateMutability": "nonpayable",
      "type": "function"
    }
  ],
  "bytecode": "0x60806040523480156200001157600080fd5b506040516200108838038062001088833981810160405281019062000037919062000303565b336000806101000a81548173ffffffffffffffffffffffffffffffffffffffff021916908373ffffffffffffffffffffffffffffffffffffffff16021790555060005b8151811015620001475760026040518060400160405280848481518110620000cb577f4e487b7100000000000000000000000000000000000000000000000000000000600052603260045260246000fd5b60200260200101518152602001600081525090806001815401808255809150506001900390600052602060002090600202016000909190919091506000820151816000019080519060200190620001249291906200014f565b5060208201518160010155505080806200013e9062000454565b9150506200007a565b50506200052f565b8280546200015d906200041e565b90600052602060002090601f016020900481019282620001815760008555620001cd565b82601f106200019c57805160ff1916838001178555620001cd565b82800160010185558215620001cd579182015b82811115620001cc578251825591602001919060010190620001af565b5b509050620001dc9190620001e0565b5090565b5b80821115620001fb576000816000905550600101620001e1565b5090565b60006200021662000210846200037c565b62000348565b9050808382526020820190508260005b858110156200025a57815185016200023f8882620002d6565b84526020840193506020830192505060018101905062000226565b5050509392505050565b60006200027b6200027584620003ab565b62000348565b9050828152602081018484840111156200029457600080fd5b620002a1848285620003e8565b509392505050565b600082601f830112620002bb57600080fd5b8151620002cd848260208601620001ff565b91505092915050565b600082601f830112620002e857600080fd5b8151620002fa84826020860162000264565b91505092915050565b6000602082840312156200031657600080fd5b600082015167ffffffffffffffff8111156200033157600080fd5b6200033f84828501620002a9565b91505092915050565b6000604051905081810181811067ffffffffffffffff8211171562000372576200037162000500565b5b8060405250919050565b600067ffffffffffffffff8211156200039a576200039962000500565b5b602082029050602081019050919050565b600067ffffffffffffffff821115620003c957620003c862000500565b5b601f19601f8301169050602081019050919050565b6000819050919050565b60005b8381101562000408578082015181840152602081019050620003eb565b8381111562000418576000848401525b50505050565b600060028204905060018216806200043757607f821691505b602082108114156200044e576200044d620004d1565b5b50919050565b60006200046182620003de565b91507fffffffffffffffffffffffffffffffffffffffffffffffffffffffffffffffff821415620004975762000496620004a2565b5b600182019050919050565b7f4e487b7100000000000000000000000000000000000000000000000000000000600052601160045260246000fd5b7f4e487b7100000000000000000000000000000000000000000000000000000000600052602260045260246000fd5b7f4e487b7100000000000000000000000000000000000000000000000000000000600052604160045260246000fd5b610b49806200053f6000396000f3fe608060405234801561001057600080fd5b50600436106100575760003560e01c80630121b93f1461005c57806309eef43e146100785780633477ee2e146100a85780638e7ea5b2146100d9578063f851a440146100f7575b600080fd5b61007660048036038101906100719190610677565b610115565b005b610092600480360381019061008d919061064e565b610335565b60405161009f9190610821565b60405180910390f35b6100c260048036038101906100bd9190610677565b610355565b6040516100d092919061085e565b60405180910390f35b6100e1610411565b6040516100ee919061083c565b60405180910390f35b6100ff610600565b60405161010c9190610806565b60405180910390f35b60008054906101000a900473ffffffffffffffffffffffffffffffffffffffff1673ffffffffffffffffffffffffffffffffffffffff163373ffffffffffffffffffffffffffffffffffffffff1614156101a4576040517f08c379a000000000000000000000000000000000000000000000000000000000815260040161019b906108ce565b60405180910390fd5b600160003373ffffffffffffffffffffffffffffffffffffffff1673ffffffffffffffffffffffffffffffffffffffff16815260200190815260200160002060009054906101000a900460ff1615610231576040517f08c379a00000000000000000000000000000000000000000000000000000000081526004016102289061088e565b60405180910390fd5b6002805490508110610278576040517f08c379a000000000000000000000000000000000000000000000000000000000815260040161026f906108ee565b60405180910390fd5b60018060003373ffffffffffffffffffffffffffffffffffffffff1673ffffffffffffffffffffffffffffffffffffffff16815260200190815260200160002060006101000a81548160ff02191690831515021790555060016002828154811061030b577f4e487b7100000000000000000000000000000000000000000000000000000000600052603260045260246000fd5b9060005260206000209060020201600101600082825461032b919061092a565b9250508190555050565b60016020528060005260406000206000915054906101000a900460ff1681565b6002818154811061036557600080fd5b9060005260206000209060020201600091509050806000018054610388906109fb565b80601f01602080910402602001604051908101604052809291908181526020018280546103b4906109fb565b80156104015780601f106103d657610100808354040283529160200191610401565b820191906000526020600020905b8154815290600101906020018083116103e457829003601f168201915b5050505050908060010154905082565b606060006002805490501161045b576040517f08c379a0000000000000000000000000000000000000000000000000000000008152600401610452906108ae565b60405180910390fd5b600080600190505b60028054905081101561052557600282815481106104aa577f4e487b7100000000000000000000000000000000000000000000000000000000600052603260045260246000fd5b906000526020600020906002020160010154600282815481106104f6577f4e487b7100000000000000000000000000000000000000000000000000000000600052603260045260246000fd5b9060005260206000209060020201600101541115610512578091505b808061051d90610a2d565b915050610463565b5060028181548110610560577f4e487b7100000000000000000000000000000000000000000000000000000000600052603260045260246000fd5b9060005260206000209060020201600001805461057c906109fb565b80601f01602080910402602001604051908101604052809291908181526020018280546105a8906109fb565b80156105f55780601f106105ca576101008083540402835291602001916105f5565b820191906000526020600020905b8154815290600101906020018083116105d857829003601f168201915b505050505091505090565b60008054906101000a900473ffffffffffffffffffffffffffffffffffffffff1681565b60008135905061063381610ae5565b92915050565b60008135905061064881610afc565b92915050565b60006020828403121561066057600080fd5b600061066e84828501610624565b91505092915050565b60006020828403121561068957600080fd5b600061069784828501610639565b91505092915050565b6106a981610980565b82525050565b6106b881610992565b82525050565b60006106c98261090e565b6106d38185610919565b93506106e38185602086016109c8565b6106ec81610ad4565b840191505092915050565b6000610704600e83610919565b91507f616c726561647920766f746564210000000000000000000000000000000000006000830152602082019050919050565b6000610744601783610919565b91507f4e6f2063616e64696461746573206172652074686572650000000000000000006000830152602082019050919050565b6000610784600b83610919565b91507f75206172652061646d696e0000000000000000000000000000000000000000006000830152602082019050919050565b60006107c4600d83610919565b91507f696e76616c696420696e646578000000000000000000000000000000000000006000830152602082019050919050565b610800816109be565b82525050565b600060208201905061081b60008301846106a0565b92915050565b600060208201905061083660008301846106af565b92915050565b6000602082019050818103600083015261085681846106be565b905092915050565b6000604082019050818103600083015261087881856106be565b905061088760208301846107f7565b9392505050565b600060208201905081810360008301526108a7816106f7565b9050919050565b600060208201905081810360008301526108c781610737565b9050919050565b600060208201905081810360008301526108e781610777565b9050919050565b60006020820190508181036000830152610907816107b7565b9050919050565b600081519050919050565b600082825260208201905092915050565b6000610935826109be565b9150610940836109be565b9250827fffffffffffffffffffffffffffffffffffffffffffffffffffffffffffffffff0382111561097557610974610a76565b5b828201905092915050565b600061098b8261099e565b9050919050565b60008115159050919050565b600073ffffffffffffffffffffffffffffffffffffffff82169050919050565b6000819050919050565b60005b838110156109e65780820151818401526020810190506109cb565b838111156109f5576000848401525b50505050565b60006002820490506001821680610a1357607f821691505b60208210811415610a2757610a26610aa5565b5b50919050565b6000610a38826109be565b91507fffffffffffffffffffffffffffffffffffffffffffffffffffffffffffffffff821415610a6b57610a6a610a76565b5b600182019050919050565b7f4e487b7100000000000000000000000000000000000000000000000000000000600052601160045260246000fd5b7f4e487b7100000000000000000000000000000000000000000000000000000000600052602260045260246000fd5b6000601f19601f8301169050919050565b610aee81610980565b8114610af957600080fd5b50565b610b05816109be565b8114610b1057600080fd5b5056fea2646970667358221220b19d864703e1a694180e73cf10da72cc86b01668697a6ba13c7643e31562825f64736f6c63430008000033",
  "linkReferences": {},
  "deployedLinkReferences": {}
}